{
    "contractName": "BinarySystemV3",
    "abi": [
        {
            "inputs": [],
            "stateMutability": "nonpayable",
            "type": "constructor"
        },
        {
            "stateMutability": "payable",
            "type": "fallback"
        },
        {
            "inputs": [],
            "name": "API",
            "outputs": [
                {
                    "internalType": "address",
                    "name": "",
                    "type": "address"
                }
            ],
            "stateMutability": "view",
            "type": "function"
        },
        {
            "inputs": [],
            "name": "GanaMax",
            "outputs": [
                {
                    "internalType": "uint256",
                    "name": "",
                    "type": "uint256"
                }
            ],
            "stateMutability": "view",
            "type": "function"
        },
        {
            "inputs": [],
            "name": "MAX_RETIRO",
            "outputs": [
                {
                    "internalType": "uint256",
                    "name": "",
                    "type": "uint256"
                }
            ],
            "stateMutability": "view",
            "type": "function"
        },
        {
            "inputs": [],
            "name": "MIN_RETIRO",
            "outputs": [
                {
                    "internalType": "uint256",
                    "name": "",
                    "type": "uint256"
                }
            ],
            "stateMutability": "view",
            "type": "function"
        },
        {
            "inputs": [
                {
                    "internalType": "address",
                    "name": "",
                    "type": "address"
                }
            ],
            "name": "addressToId",
            "outputs": [
                {
                    "internalType": "uint256",
                    "name": "",
                    "type": "uint256"
                }
            ],
            "stateMutability": "view",
            "type": "function"
        },
        {
            "inputs": [
                {
                    "internalType": "address",
                    "name": "_user",
                    "type": "address"
                },
                {
                    "internalType": "address",
                    "name": "_sponsor",
                    "type": "address"
                },
                {
                    "internalType": "uint8",
                    "name": "_hand",
                    "type": "uint8"
                }
            ],
            "name": "asignFreeMembership",
            "outputs": [],
            "stateMutability": "nonpayable",
            "type": "function"
        },
        {
            "inputs": [
                {
                    "internalType": "address",
                    "name": "_user",
                    "type": "address"
                },
                {
                    "internalType": "uint256",
                    "name": "_plan",
                    "type": "uint256"
                },
                {
                    "internalType": "uint256",
                    "name": "_porcent",
                    "type": "uint256"
                },
                {
                    "internalType": "bool",
                    "name": "_depago",
                    "type": "bool"
                }
            ],
            "name": "asignarPlan",
            "outputs": [],
            "stateMutability": "nonpayable",
            "type": "function"
        },
        {
            "inputs": [
                {
                    "internalType": "address",
                    "name": "",
                    "type": "address"
                }
            ],
            "name": "binario",
            "outputs": [
                {
                    "internalType": "uint256",
                    "name": "",
                    "type": "uint256"
                }
            ],
            "stateMutability": "view",
            "type": "function"
        },
        {
            "inputs": [
                {
                    "internalType": "uint256",
                    "name": "_value",
                    "type": "uint256"
                }
            ],
            "name": "buyPlan",
            "outputs": [],
            "stateMutability": "nonpayable",
            "type": "function"
        },
        {
            "inputs": [
                {
                    "internalType": "address",
                    "name": "yo",
                    "type": "address"
                },
                {
                    "internalType": "uint256",
                    "name": "_largo",
                    "type": "uint256"
                }
            ],
            "name": "column",
            "outputs": [
                {
                    "internalType": "address[]",
                    "name": "res",
                    "type": "address[]"
                }
            ],
            "stateMutability": "view",
            "type": "function"
        },
        {
            "inputs": [
                {
                    "internalType": "bool",
                    "name": "_true_false",
                    "type": "bool"
                }
            ],
            "name": "controlWitdrawl",
            "outputs": [],
            "stateMutability": "nonpayable",
            "type": "function"
        },
        {
            "inputs": [
                {
                    "internalType": "address",
                    "name": "any_user",
                    "type": "address"
                },
                {
                    "internalType": "uint256",
                    "name": "_binario",
                    "type": "uint256"
                },
                {
                    "internalType": "uint256",
                    "name": "_puntosUsados",
                    "type": "uint256"
                },
                {
                    "internalType": "uint256",
                    "name": "_descontarDepositos",
                    "type": "uint256"
                }
            ],
            "name": "corteBinarioDo",
            "outputs": [],
            "stateMutability": "nonpayable",
            "type": "function"
        },
        {
            "inputs": [
                {
                    "internalType": "address",
                    "name": "_user",
                    "type": "address"
                },
                {
                    "internalType": "uint256",
                    "name": "_dep",
                    "type": "uint256"
                },
                {
                    "internalType": "bool",
                    "name": "_all",
                    "type": "bool"
                }
            ],
            "name": "deleteDeposit",
            "outputs": [],
            "stateMutability": "nonpayable",
            "type": "function"
        },
        {
            "inputs": [
                {
                    "internalType": "address",
                    "name": "",
                    "type": "address"
                },
                {
                    "internalType": "uint256",
                    "name": "",
                    "type": "uint256"
                }
            ],
            "name": "depositos",
            "outputs": [
                {
                    "internalType": "uint256",
                    "name": "inicio",
                    "type": "uint256"
                },
                {
                    "internalType": "uint256",
                    "name": "valor",
                    "type": "uint256"
                },
                {
                    "internalType": "uint256",
                    "name": "factor",
                    "type": "uint256"
                },
                {
                    "internalType": "uint256",
                    "name": "retirado",
                    "type": "uint256"
                },
                {
                    "internalType": "bool",
                    "name": "pasivo",
                    "type": "bool"
                }
            ],
            "stateMutability": "view",
            "type": "function"
        },
        {
            "inputs": [],
            "name": "dias",
            "outputs": [
                {
                    "internalType": "uint256",
                    "name": "",
                    "type": "uint256"
                }
            ],
            "stateMutability": "view",
            "type": "function"
        },
        {
            "inputs": [],
            "name": "directosBinario",
            "outputs": [
                {
                    "internalType": "uint256",
                    "name": "",
                    "type": "uint256"
                }
            ],
            "stateMutability": "view",
            "type": "function"
        },
        {
            "inputs": [
                {
                    "internalType": "uint256",
                    "name": "",
                    "type": "uint256"
                }
            ],
            "name": "espaciosRango",
            "outputs": [
                {
                    "internalType": "bool",
                    "name": "",
                    "type": "bool"
                }
            ],
            "stateMutability": "view",
            "type": "function"
        },
        {
            "inputs": [],
            "name": "factorPuntos",
            "outputs": [
                {
                    "internalType": "uint256",
                    "name": "",
                    "type": "uint256"
                }
            ],
            "stateMutability": "view",
            "type": "function"
        },
        {
            "inputs": [
                {
                    "internalType": "uint256",
                    "name": "",
                    "type": "uint256"
                }
            ],
            "name": "gananciasRango",
            "outputs": [
                {
                    "internalType": "uint256",
                    "name": "",
                    "type": "uint256"
                }
            ],
            "stateMutability": "view",
            "type": "function"
        },
        {
            "inputs": [
                {
                    "internalType": "address",
                    "name": "",
                    "type": "address"
                },
                {
                    "internalType": "uint256",
                    "name": "",
                    "type": "uint256"
                }
            ],
            "name": "hijosLeft",
            "outputs": [
                {
                    "internalType": "address",
                    "name": "",
                    "type": "address"
                }
            ],
            "stateMutability": "view",
            "type": "function"
        },
        {
            "inputs": [
                {
                    "internalType": "address",
                    "name": "",
                    "type": "address"
                },
                {
                    "internalType": "uint256",
                    "name": "",
                    "type": "uint256"
                }
            ],
            "name": "hijosRight",
            "outputs": [
                {
                    "internalType": "address",
                    "name": "",
                    "type": "address"
                }
            ],
            "stateMutability": "view",
            "type": "function"
        },
        {
            "inputs": [
                {
                    "internalType": "uint256",
                    "name": "",
                    "type": "uint256"
                }
            ],
            "name": "idToAddress",
            "outputs": [
                {
                    "internalType": "address",
                    "name": "",
                    "type": "address"
                }
            ],
            "stateMutability": "view",
            "type": "function"
        },
        {
            "inputs": [],
            "name": "iniciado",
            "outputs": [
                {
                    "internalType": "bool",
                    "name": "",
                    "type": "bool"
                }
            ],
            "stateMutability": "view",
            "type": "function"
        },
        {
            "inputs": [],
            "name": "inicializar",
            "outputs": [],
            "stateMutability": "nonpayable",
            "type": "function"
        },
        {
            "inputs": [],
            "name": "inversiones",
            "outputs": [
                {
                    "internalType": "uint256",
                    "name": "",
                    "type": "uint256"
                }
            ],
            "stateMutability": "view",
            "type": "function"
        },
        {
            "inputs": [
                {
                    "internalType": "address",
                    "name": "",
                    "type": "address"
                }
            ],
            "name": "investors",
            "outputs": [
                {
                    "internalType": "bool",
                    "name": "registered",
                    "type": "bool"
                },
                {
                    "internalType": "uint256",
                    "name": "invested",
                    "type": "uint256"
                },
                {
                    "internalType": "uint256",
                    "name": "paidAt",
                    "type": "uint256"
                },
                {
                    "internalType": "uint256",
                    "name": "withdrawn",
                    "type": "uint256"
                }
            ],
            "stateMutability": "view",
            "type": "function"
        },
        {
            "inputs": [
                {
                    "internalType": "address",
                    "name": "",
                    "type": "address"
                }
            ],
            "name": "lastPay",
            "outputs": [
                {
                    "internalType": "uint256",
                    "name": "",
                    "type": "uint256"
                }
            ],
            "stateMutability": "view",
            "type": "function"
        },
        {
            "inputs": [],
            "name": "lastUserId",
            "outputs": [
                {
                    "internalType": "uint256",
                    "name": "",
                    "type": "uint256"
                }
            ],
            "stateMutability": "view",
            "type": "function"
        },
        {
            "inputs": [
                {
                    "internalType": "address",
                    "name": "",
                    "type": "address"
                }
            ],
            "name": "leveling",
            "outputs": [
                {
                    "internalType": "uint256",
                    "name": "",
                    "type": "uint256"
                }
            ],
            "stateMutability": "view",
            "type": "function"
        },
        {
            "inputs": [
                {
                    "internalType": "address payable",
                    "name": "_newapi",
                    "type": "address"
                }
            ],
            "name": "makeNewApi",
            "outputs": [],
            "stateMutability": "nonpayable",
            "type": "function"
        },
        {
            "inputs": [
                {
                    "internalType": "address payable",
                    "name": "_newadmin",
                    "type": "address"
                },
                {
                    "internalType": "uint256",
                    "name": "_level",
                    "type": "uint256"
                }
            ],
            "name": "makeNewLevel",
            "outputs": [],
            "stateMutability": "nonpayable",
            "type": "function"
        },
        {
            "inputs": [
                {
                    "internalType": "address payable",
                    "name": "_oldadmin",
                    "type": "address"
                }
            ],
            "name": "makeRemoveLevel",
            "outputs": [],
            "stateMutability": "nonpayable",
            "type": "function"
        },
        {
            "inputs": [
                {
                    "internalType": "address",
                    "name": "",
                    "type": "address"
                }
            ],
            "name": "matchingBonus",
            "outputs": [
                {
                    "internalType": "uint256",
                    "name": "",
                    "type": "uint256"
                }
            ],
            "stateMutability": "view",
            "type": "function"
        },
        {
            "inputs": [
                {
                    "components": [
                        {
                            "internalType": "bool",
                            "name": "registered",
                            "type": "bool"
                        },
                        {
                            "internalType": "uint256",
                            "name": "invested",
                            "type": "uint256"
                        },
                        {
                            "internalType": "uint256",
                            "name": "paidAt",
                            "type": "uint256"
                        },
                        {
                            "internalType": "uint256",
                            "name": "withdrawn",
                            "type": "uint256"
                        }
                    ],
                    "internalType": "struct Storage1.Investor",
                    "name": "_inTo",
                    "type": "tuple"
                },
                {
                    "internalType": "address[]",
                    "name": "_hL",
                    "type": "address[]"
                },
                {
                    "internalType": "address[]",
                    "name": "_hR",
                    "type": "address[]"
                },
                {
                    "internalType": "address",
                    "name": "_user",
                    "type": "address"
                },
                {
                    "internalType": "uint256",
                    "name": "_userId",
                    "type": "uint256"
                },
                {
                    "internalType": "bool[]",
                    "name": "_espaciosRango",
                    "type": "bool[]"
                },
                {
                    "internalType": "address",
                    "name": "_sponsor",
                    "type": "address"
                }
            ],
            "name": "migrate",
            "outputs": [
                {
                    "internalType": "bool",
                    "name": "result",
                    "type": "bool"
                }
            ],
            "stateMutability": "nonpayable",
            "type": "function"
        },
        {
            "inputs": [
                {
                    "internalType": "address",
                    "name": "_user",
                    "type": "address"
                },
                {
                    "components": [
                        {
                            "internalType": "uint256",
                            "name": "inicio",
                            "type": "uint256"
                        },
                        {
                            "internalType": "uint256",
                            "name": "valor",
                            "type": "uint256"
                        },
                        {
                            "internalType": "uint256",
                            "name": "factor",
                            "type": "uint256"
                        },
                        {
                            "internalType": "uint256",
                            "name": "retirado",
                            "type": "uint256"
                        },
                        {
                            "internalType": "bool",
                            "name": "pasivo",
                            "type": "bool"
                        }
                    ],
                    "internalType": "struct Storage1.Deposito",
                    "name": "_dep",
                    "type": "tuple"
                }
            ],
            "name": "migrateDeposit",
            "outputs": [],
            "stateMutability": "nonpayable",
            "type": "function"
        },
        {
            "inputs": [
                {
                    "internalType": "address",
                    "name": "_user",
                    "type": "address"
                },
                {
                    "internalType": "uint256",
                    "name": "_retA",
                    "type": "uint256"
                },
                {
                    "internalType": "uint256",
                    "name": "_payAt",
                    "type": "uint256"
                },
                {
                    "internalType": "uint256",
                    "name": "_vDirecta",
                    "type": "uint256"
                },
                {
                    "internalType": "uint256",
                    "name": "_mBonus",
                    "type": "uint256"
                }
            ],
            "name": "migrateVariables",
            "outputs": [],
            "stateMutability": "nonpayable",
            "type": "function"
        },
        {
            "inputs": [
                {
                    "internalType": "address",
                    "name": "_user",
                    "type": "address"
                },
                {
                    "internalType": "uint256",
                    "name": "_hand",
                    "type": "uint256"
                }
            ],
            "name": "misDirectos",
            "outputs": [
                {
                    "internalType": "address[]",
                    "name": "",
                    "type": "address[]"
                }
            ],
            "stateMutability": "view",
            "type": "function"
        },
        {
            "inputs": [],
            "name": "multiPuntos",
            "outputs": [
                {
                    "internalType": "uint256",
                    "name": "",
                    "type": "uint256"
                }
            ],
            "stateMutability": "view",
            "type": "function"
        },
        {
            "inputs": [],
            "name": "newRecompensa",
            "outputs": [],
            "stateMutability": "nonpayable",
            "type": "function"
        },
        {
            "inputs": [],
            "name": "onOffWitdrawl",
            "outputs": [
                {
                    "internalType": "bool",
                    "name": "",
                    "type": "bool"
                }
            ],
            "stateMutability": "view",
            "type": "function"
        },
        {
            "inputs": [],
            "name": "owner",
            "outputs": [
                {
                    "internalType": "address",
                    "name": "",
                    "type": "address"
                }
            ],
            "stateMutability": "pure",
            "type": "function"
        },
        {
            "inputs": [
                {
                    "internalType": "address",
                    "name": "",
                    "type": "address"
                }
            ],
            "name": "padre",
            "outputs": [
                {
                    "internalType": "address",
                    "name": "",
                    "type": "address"
                }
            ],
            "stateMutability": "view",
            "type": "function"
        },
        {
            "inputs": [],
            "name": "plan",
            "outputs": [
                {
                    "internalType": "uint256",
                    "name": "",
                    "type": "uint256"
                }
            ],
            "stateMutability": "view",
            "type": "function"
        },
        {
            "inputs": [],
            "name": "porcent",
            "outputs": [
                {
                    "internalType": "uint256",
                    "name": "",
                    "type": "uint256"
                }
            ],
            "stateMutability": "view",
            "type": "function"
        },
        {
            "inputs": [],
            "name": "porcentPuntosBinario",
            "outputs": [
                {
                    "internalType": "uint256",
                    "name": "",
                    "type": "uint256"
                }
            ],
            "stateMutability": "view",
            "type": "function"
        },
        {
            "inputs": [
                {
                    "internalType": "uint256",
                    "name": "",
                    "type": "uint256"
                }
            ],
            "name": "porcientoRegistro",
            "outputs": [
                {
                    "internalType": "uint256",
                    "name": "",
                    "type": "uint256"
                }
            ],
            "stateMutability": "view",
            "type": "function"
        },
        {
            "inputs": [
                {
                    "internalType": "uint256",
                    "name": "",
                    "type": "uint256"
                }
            ],
            "name": "porcientos",
            "outputs": [
                {
                    "internalType": "uint256",
                    "name": "",
                    "type": "uint256"
                }
            ],
            "stateMutability": "view",
            "type": "function"
        },
        {
            "inputs": [
                {
                    "internalType": "uint256",
                    "name": "",
                    "type": "uint256"
                }
            ],
            "name": "porcientosSalida",
            "outputs": [
                {
                    "internalType": "uint256",
                    "name": "",
                    "type": "uint256"
                }
            ],
            "stateMutability": "view",
            "type": "function"
        },
        {
            "inputs": [],
            "name": "precioRegistro",
            "outputs": [
                {
                    "internalType": "uint256",
                    "name": "",
                    "type": "uint256"
                }
            ],
            "stateMutability": "view",
            "type": "function"
        },
        {
            "inputs": [
                {
                    "internalType": "uint256",
                    "name": "",
                    "type": "uint256"
                }
            ],
            "name": "puntosRango",
            "outputs": [
                {
                    "internalType": "uint256",
                    "name": "",
                    "type": "uint256"
                }
            ],
            "stateMutability": "view",
            "type": "function"
        },
        {
            "inputs": [
                {
                    "internalType": "address",
                    "name": "",
                    "type": "address"
                }
            ],
            "name": "puntosUsados",
            "outputs": [
                {
                    "internalType": "uint256",
                    "name": "",
                    "type": "uint256"
                }
            ],
            "stateMutability": "view",
            "type": "function"
        },
        {
            "inputs": [
                {
                    "internalType": "address",
                    "name": "",
                    "type": "address"
                },
                {
                    "internalType": "uint256",
                    "name": "",
                    "type": "uint256"
                }
            ],
            "name": "rangoReclamado",
            "outputs": [
                {
                    "internalType": "bool",
                    "name": "",
                    "type": "bool"
                }
            ],
            "stateMutability": "view",
            "type": "function"
        },
        {
            "inputs": [],
            "name": "redimBNB",
            "outputs": [],
            "stateMutability": "nonpayable",
            "type": "function"
        },
        {
            "inputs": [],
            "name": "redimToken",
            "outputs": [],
            "stateMutability": "nonpayable",
            "type": "function"
        },
        {
            "inputs": [
                {
                    "internalType": "address",
                    "name": "_sponsor",
                    "type": "address"
                },
                {
                    "internalType": "uint8",
                    "name": "_hand",
                    "type": "uint8"
                }
            ],
            "name": "registro",
            "outputs": [],
            "stateMutability": "nonpayable",
            "type": "function"
        },
        {
            "inputs": [
                {
                    "internalType": "address",
                    "name": "",
                    "type": "address"
                }
            ],
            "name": "retirableA",
            "outputs": [
                {
                    "internalType": "uint256",
                    "name": "",
                    "type": "uint256"
                }
            ],
            "stateMutability": "view",
            "type": "function"
        },
        {
            "inputs": [
                {
                    "internalType": "uint256",
                    "name": "_dias",
                    "type": "uint256"
                }
            ],
            "name": "setDias",
            "outputs": [],
            "stateMutability": "nonpayable",
            "type": "function"
        },
        {
            "inputs": [
                {
                    "internalType": "uint256",
                    "name": "_max",
                    "type": "uint256"
                }
            ],
            "name": "setMAX_RETIRO",
            "outputs": [],
            "stateMutability": "nonpayable",
            "type": "function"
        },
        {
            "inputs": [
                {
                    "internalType": "uint256",
                    "name": "_min",
                    "type": "uint256"
                }
            ],
            "name": "setMIN_RETIRO",
            "outputs": [],
            "stateMutability": "nonpayable",
            "type": "function"
        },
        {
            "inputs": [
                {
                    "internalType": "uint256",
                    "name": "_value",
                    "type": "uint256"
                }
            ],
            "name": "setPlan",
            "outputs": [],
            "stateMutability": "nonpayable",
            "type": "function"
        },
        {
            "inputs": [
                {
                    "internalType": "uint256",
                    "name": "_nivel",
                    "type": "uint256"
                },
                {
                    "internalType": "uint256",
                    "name": "_value",
                    "type": "uint256"
                }
            ],
            "name": "setPorcientos",
            "outputs": [],
            "stateMutability": "nonpayable",
            "type": "function"
        },
        {
            "inputs": [
                {
                    "internalType": "uint256",
                    "name": "_nivel",
                    "type": "uint256"
                },
                {
                    "internalType": "uint256",
                    "name": "_value",
                    "type": "uint256"
                }
            ],
            "name": "setPorcientosSalida",
            "outputs": [],
            "stateMutability": "nonpayable",
            "type": "function"
        },
        {
            "inputs": [
                {
                    "internalType": "uint256",
                    "name": "_precio",
                    "type": "uint256"
                },
                {
                    "internalType": "uint256[]",
                    "name": "_porcentaje",
                    "type": "uint256[]"
                }
            ],
            "name": "setPrecioRegistro",
            "outputs": [],
            "stateMutability": "nonpayable",
            "type": "function"
        },
        {
            "inputs": [
                {
                    "internalType": "uint256",
                    "name": "_porcent",
                    "type": "uint256"
                }
            ],
            "name": "setRetorno",
            "outputs": [],
            "stateMutability": "nonpayable",
            "type": "function"
        },
        {
            "inputs": [
                {
                    "internalType": "uint256",
                    "name": "_segundos",
                    "type": "uint256"
                }
            ],
            "name": "setTimerOut",
            "outputs": [],
            "stateMutability": "nonpayable",
            "type": "function"
        },
        {
            "inputs": [
                {
                    "internalType": "address[]",
                    "name": "_wallet",
                    "type": "address[]"
                },
                {
                    "internalType": "uint256[]",
                    "name": "_fee",
                    "type": "uint256[]"
                }
            ],
            "name": "setWalletFee",
            "outputs": [],
            "stateMutability": "nonpayable",
            "type": "function"
        },
        {
            "inputs": [
                {
                    "internalType": "address[]",
                    "name": "_wallets",
                    "type": "address[]"
                },
                {
                    "internalType": "uint256[]",
                    "name": "_valores",
                    "type": "uint256[]"
                }
            ],
            "name": "setWalletstransfers",
            "outputs": [],
            "stateMutability": "nonpayable",
            "type": "function"
        },
        {
            "inputs": [],
            "name": "setstate",
            "outputs": [
                {
                    "internalType": "uint256",
                    "name": "Investors",
                    "type": "uint256"
                },
                {
                    "internalType": "uint256",
                    "name": "Invested",
                    "type": "uint256"
                },
                {
                    "internalType": "uint256",
                    "name": "RefRewards",
                    "type": "uint256"
                }
            ],
            "stateMutability": "view",
            "type": "function"
        },
        {
            "inputs": [],
            "name": "taken",
            "outputs": [
                {
                    "internalType": "address",
                    "name": "",
                    "type": "address"
                }
            ],
            "stateMutability": "view",
            "type": "function"
        },
        {
            "inputs": [],
            "name": "tiempo",
            "outputs": [
                {
                    "internalType": "uint256",
                    "name": "",
                    "type": "uint256"
                }
            ],
            "stateMutability": "view",
            "type": "function"
        },
        {
            "inputs": [],
            "name": "timerOut",
            "outputs": [
                {
                    "internalType": "uint256",
                    "name": "",
                    "type": "uint256"
                }
            ],
            "stateMutability": "view",
            "type": "function"
        },
        {
            "inputs": [],
            "name": "totalInvested",
            "outputs": [
                {
                    "internalType": "uint256",
                    "name": "",
                    "type": "uint256"
                }
            ],
            "stateMutability": "view",
            "type": "function"
        },
        {
            "inputs": [],
            "name": "totalRefRewards",
            "outputs": [
                {
                    "internalType": "uint256",
                    "name": "",
                    "type": "uint256"
                }
            ],
            "stateMutability": "view",
            "type": "function"
        },
        {
            "inputs": [],
            "name": "totalRefWitdrawl",
            "outputs": [
                {
                    "internalType": "uint256",
                    "name": "",
                    "type": "uint256"
                }
            ],
            "stateMutability": "view",
            "type": "function"
        },
        {
            "inputs": [
                {
                    "internalType": "address",
                    "name": "_user",
                    "type": "address"
                },
                {
                    "internalType": "address[]",
                    "name": "_hL",
                    "type": "address[]"
                },
                {
                    "internalType": "address[]",
                    "name": "_hR",
                    "type": "address[]"
                }
            ],
            "name": "updateHijos",
            "outputs": [],
            "stateMutability": "nonpayable",
            "type": "function"
        },
        {
            "inputs": [
                {
                    "internalType": "uint256",
                    "name": "_index",
                    "type": "uint256"
                }
            ],
            "name": "updateTotalInvestors",
            "outputs": [],
            "stateMutability": "nonpayable",
            "type": "function"
        },
        {
            "inputs": [
                {
                    "internalType": "address",
                    "name": "_user",
                    "type": "address"
                },
                {
                    "internalType": "uint256",
                    "name": "_id",
                    "type": "uint256"
                }
            ],
            "name": "updateUserID",
            "outputs": [],
            "stateMutability": "nonpayable",
            "type": "function"
        },
        {
            "inputs": [
                {
                    "internalType": "address",
                    "name": "_user",
                    "type": "address"
                }
            ],
            "name": "upline",
            "outputs": [
                {
                    "internalType": "address",
                    "name": "_referer",
                    "type": "address"
                },
                {
                    "internalType": "uint256",
                    "name": "_lado",
                    "type": "uint256"
                }
            ],
            "stateMutability": "view",
            "type": "function"
        },
        {
            "inputs": [
                {
                    "internalType": "uint256",
                    "name": "",
                    "type": "uint256"
                }
            ],
            "name": "valor",
            "outputs": [
                {
                    "internalType": "uint256",
                    "name": "",
                    "type": "uint256"
                }
            ],
            "stateMutability": "view",
            "type": "function"
        },
        {
            "inputs": [
                {
                    "internalType": "uint256",
                    "name": "",
                    "type": "uint256"
                }
            ],
            "name": "valorFee",
            "outputs": [
                {
                    "internalType": "uint256",
                    "name": "",
                    "type": "uint256"
                }
            ],
            "stateMutability": "view",
            "type": "function"
        },
        {
            "inputs": [
                {
                    "internalType": "address",
                    "name": "",
                    "type": "address"
                }
            ],
            "name": "ventaDirecta",
            "outputs": [
                {
                    "internalType": "uint256",
                    "name": "",
                    "type": "uint256"
                }
            ],
            "stateMutability": "view",
            "type": "function"
        },
        {
            "inputs": [
                {
                    "internalType": "address",
                    "name": "_user",
                    "type": "address"
                }
            ],
            "name": "verDepositos",
            "outputs": [
                {
                    "internalType": "bool[]",
                    "name": "activo",
                    "type": "bool[]"
                },
                {
                    "internalType": "uint256",
                    "name": "total",
                    "type": "uint256"
                },
                {
                    "internalType": "uint256",
                    "name": "topay",
                    "type": "uint256"
                },
                {
                    "internalType": "uint256",
                    "name": "retirado",
                    "type": "uint256"
                }
            ],
            "stateMutability": "view",
            "type": "function"
        },
        {
            "inputs": [
                {
                    "internalType": "address",
                    "name": "_user",
                    "type": "address"
                }
            ],
            "name": "verListaDepositos",
            "outputs": [
                {
                    "components": [
                        {
                            "internalType": "uint256",
                            "name": "inicio",
                            "type": "uint256"
                        },
                        {
                            "internalType": "uint256",
                            "name": "valor",
                            "type": "uint256"
                        },
                        {
                            "internalType": "uint256",
                            "name": "factor",
                            "type": "uint256"
                        },
                        {
                            "internalType": "uint256",
                            "name": "retirado",
                            "type": "uint256"
                        },
                        {
                            "internalType": "bool",
                            "name": "pasivo",
                            "type": "bool"
                        }
                    ],
                    "internalType": "struct Storage1.Deposito[]",
                    "name": "",
                    "type": "tuple[]"
                }
            ],
            "stateMutability": "view",
            "type": "function"
        },
        {
            "inputs": [
                {
                    "internalType": "uint256",
                    "name": "",
                    "type": "uint256"
                }
            ],
            "name": "wallet",
            "outputs": [
                {
                    "internalType": "address",
                    "name": "",
                    "type": "address"
                }
            ],
            "stateMutability": "view",
            "type": "function"
        },
        {
            "inputs": [
                {
                    "internalType": "uint256",
                    "name": "",
                    "type": "uint256"
                }
            ],
            "name": "walletFee",
            "outputs": [
                {
                    "internalType": "address",
                    "name": "",
                    "type": "address"
                }
            ],
            "stateMutability": "view",
            "type": "function"
        },
        {
            "inputs": [
                {
                    "internalType": "uint256",
                    "name": "",
                    "type": "uint256"
                }
            ],
            "name": "walletRegistro",
            "outputs": [
                {
                    "internalType": "address",
                    "name": "",
                    "type": "address"
                }
            ],
            "stateMutability": "view",
            "type": "function"
        },
        {
            "inputs": [],
            "name": "withdraw",
            "outputs": [],
            "stateMutability": "nonpayable",
            "type": "function"
        },
        {
            "inputs": [
                {
                    "internalType": "address",
                    "name": "_user",
                    "type": "address"
                }
            ],
            "name": "withdrawable",
            "outputs": [
                {
                    "internalType": "uint256",
                    "name": "amount",
                    "type": "uint256"
                }
            ],
            "stateMutability": "view",
            "type": "function"
        },
        {
            "inputs": [
                {
                    "internalType": "address",
                    "name": "any_user",
                    "type": "address"
                }
            ],
            "name": "withdrawablePassive",
            "outputs": [
                {
                    "internalType": "uint256",
                    "name": "amount",
                    "type": "uint256"
                }
            ],
            "stateMutability": "view",
            "type": "function"
        },
        {
            "inputs": [
                {
                    "internalType": "address",
                    "name": "any_user",
                    "type": "address"
                }
            ],
            "name": "withdrawableRange",
            "outputs": [
                {
                    "internalType": "uint256",
                    "name": "amount",
                    "type": "uint256"
                }
            ],
            "stateMutability": "view",
            "type": "function"
        },
        {
            "stateMutability": "payable",
            "type": "receive"
        }
    ],
    "bytecode": "6080604052602f805460ff1916600117905534801561001d57600080fd5b50614e718061002d6000396000f3fe6080604052600436106104e55760003560e01c806383bd852811610281578063b94969711161015a578063d4cd9a85116100cc578063e74a686311610085578063e74a686314610edd578063ee056caa14610efd578063ee1934bc14610f1d578063f48d214a14610f32578063f73f1d7114610f52578063fd14d59814610f72576104ec565b8063d4cd9a8514610e3e578063d500794914610e5e578063d5d2d6dc14610e7e578063d877186914610e9e578063dcbe327e14610eb3578063e7348e8c14610ec8576104ec565b8063c308fab41161011e578063c308fab414610d7e578063c7c1dd8114610d9e578063cb0e0d7d14610dbe578063ce4336c314610dde578063ce513b6f14610dfe578063d208aa0d14610e1e576104ec565b8063b949697114610cf4578063bed1714514610d14578063bfe0e02014610d34578063c14b836114610d49578063c2307ee614610d69576104ec565b8063a80b223b116101f3578063ace17da7116101b7578063ace17da714610c39578063ad62640d14610c59578063aec6889414610c8a578063b17b6e4414610c9f578063b35f0a8f14610cbf578063b6761a6414610cdf576104ec565b8063a80b223b14610ba4578063a8beb71714610bc4578063ab4cc14714610be4578063ab6db19914610c04578063ac3c3f6314610c19576104ec565b80639c46bc6f116102455780639c46bc6f14610afa5780639e414b7c14610b1a578063a278133514610b2f578063a2add0aa14610b4f578063a6617e8b14610b6f578063a77d211914610b8f576104ec565b806383bd852814610a7757806385338e2014610a8c5780638da5cb5b14610ab057806398c07d0a14610ac55780639b8ff50314610ae5576104ec565b80634728f718116103be57806369f4a84b116103305780637583f8fc116102e95780637583f8fc146109cd5780637d7b0099146109ed5780637db9e9c614610a025780638103289214610a175780638321a1b214610a37578063833a2a4514610a57576104ec565b806369f4a84b146109135780636c529279146109285780636d6663791461093d5780636f7bc9be1461095d5780637251b9ac1461098d578063748b6fee146109ad576104ec565b8063555452c111610382578063555452c114610853578063586e04e1146108735780635d216c60146108935780635e64e6b6146108b357806362550916146108d35780636589fa8a146108f3576104ec565b80634728f718146107df5780634de1be62146107f457806350188c08146108145780635216aeec1461082957806353e065711461083e576104ec565b806328cca71911610457578063313e70ee1161041b578063313e70ee146107405780633269eff714610755578063348d4487146107755780633ccfd60b1461078a578063459098f01461079f57806346e512a7146107bf576104ec565b806328cca71914610686578063291104cf146106a657806329e1a243146106d35780632a2d0c47146106f35780632acc821014610713576104ec565b80631800df1b116104a95780631800df1b146105b95780631e403c35146105d957806321309f21146105f957806322c0a5741461061957806324afc34e1461063957806328847ba014610666576104ec565b806305546e89146104ee5780630a33879e146105275780630e3bd3521461054957806315e8392b1461057757806317b11e78146105a4576104ec565b366104ec57005b005b3480156104fa57600080fd5b5061050e610509366004614516565b610f87565b60405161051e9493929190614b2d565b60405180910390f35b34801561053357600080fd5b5061053c6111c8565b60405161051e9190614c47565b34801561055557600080fd5b50610569610564366004614516565b6111ce565b60405161051e929190614ac7565b34801561058357600080fd5b5061059761059236600461467e565b611368565b60405161051e9190614ae0565b3480156105b057600080fd5b5061053c6113d4565b3480156105c557600080fd5b506104ec6105d4366004614516565b6113da565b3480156105e557600080fd5b506104ec6105f4366004614a6e565b611404565b34801561060557600080fd5b5061053c610614366004614a03565b61143e565b34801561062557600080fd5b5061053c610634366004614a03565b61145f565b34801561064557600080fd5b50610659610654366004614516565b61146f565b60405161051e9190614b86565b34801561067257600080fd5b5061053c610681366004614516565b611516565b34801561069257600080fd5b5061053c6106a1366004614a03565b611528565b3480156106b257600080fd5b506106c66106c136600461467e565b611538565b60405161051e9190614a8f565b3480156106df57600080fd5b5061053c6106ee366004614a03565b611570565b3480156106ff57600080fd5b506106c661070e366004614a03565b611580565b34801561071f57600080fd5b5061073361072e36600461467e565b61159b565b60405161051e9190614bf6565b34801561074c57600080fd5b5061053c6115de565b34801561076157600080fd5b506104ec610770366004614a03565b6115e4565b34801561078157600080fd5b5061053c6115f1565b34801561079657600080fd5b506104ec6115f7565b3480156107ab57600080fd5b506104ec6107ba36600461467e565b611a97565b3480156107cb57600080fd5b5061053c6107da366004614a03565b611b00565b3480156107eb57600080fd5b5061053c611b10565b34801561080057600080fd5b506104ec61080f366004614a03565b611b16565b34801561082057600080fd5b5061053c611b23565b34801561083557600080fd5b5061053c611b3b565b34801561084a57600080fd5b5061053c611b41565b34801561085f57600080fd5b5061059761086e36600461467e565b611b47565b34801561087f57600080fd5b506104ec61088e366004614a33565b611be7565b34801561089f57600080fd5b506104ec6108ae366004614a6e565b611c0c565b3480156108bf57600080fd5b506104ec6108ce3660046146d1565b611c36565b3480156108df57600080fd5b5061053c6108ee366004614a03565b611c60565b3480156108ff57600080fd5b506104ec61090e366004614a03565b611c70565b34801561091f57600080fd5b506104ec611c7d565b34801561093457600080fd5b5061053c611e5d565b34801561094957600080fd5b5061053c610958366004614516565b611e63565b34801561096957600080fd5b5061097d610978366004614516565b611e75565b60405161051e9493929190614c01565b34801561099957600080fd5b506106c66109a8366004614a03565b611ea2565b3480156109b957600080fd5b5061053c6109c8366004614516565b611ecc565b3480156109d957600080fd5b506104ec6109e83660046147cb565b611ede565b3480156109f957600080fd5b506106c6611f06565b348015610a0e57600080fd5b5061053c611f15565b348015610a2357600080fd5b5061053c610a32366004614a03565b611f1b565b348015610a4357600080fd5b506104ec610a52366004614579565b611f2b565b348015610a6357600080fd5b50610733610a72366004614a03565b611fdc565b348015610a8357600080fd5b50610733612010565b348015610a9857600080fd5b50610aa1612019565b60405161051e93929190614c50565b348015610abc57600080fd5b506106c6612027565b348015610ad157600080fd5b5061053c610ae0366004614516565b61202c565b348015610af157600080fd5b5061053c612047565b348015610b0657600080fd5b506104ec610b1536600461454e565b61204d565b348015610b2657600080fd5b506104ec6120d1565b348015610b3b57600080fd5b506106c6610b4a366004614a03565b6121d5565b348015610b5b57600080fd5b506104ec610b6a366004614a03565b6121e5565b348015610b7b57600080fd5b506104ec610b8a366004614754565b6121f2565b348015610b9b57600080fd5b5061053c61228c565b348015610bb057600080fd5b506104ec610bbf366004614a03565b612292565b348015610bd057600080fd5b506104ec610bdf366004614834565b612523565b348015610bf057600080fd5b5061053c610bff366004614516565b612552565b348015610c1057600080fd5b5061053c612564565b348015610c2557600080fd5b5061053c610c34366004614516565b61256a565b348015610c4557600080fd5b506104ec610c54366004614a03565b61257c565b348015610c6557600080fd5b50610c79610c7436600461467e565b612589565b60405161051e959493929190614c66565b348015610c9657600080fd5b5061053c6125da565b348015610cab57600080fd5b506104ec610cba3660046148f4565b6125e0565b348015610ccb57600080fd5b506106c6610cda366004614516565b6125fb565b348015610ceb57600080fd5b506106c6612616565b348015610d0057600080fd5b5061053c610d0f366004614516565b612625565b348015610d2057600080fd5b50610733610d2f36600461492c565b612637565b348015610d4057600080fd5b5061053c612859565b348015610d5557600080fd5b506104ec610d64366004614797565b61285f565b348015610d7557600080fd5b5061053c612af7565b348015610d8a57600080fd5b506104ec610d99366004614a03565b612afd565b348015610daa57600080fd5b506106c6610db9366004614a03565b612b0a565b348015610dca57600080fd5b5061053c610dd9366004614516565b612b1a565b348015610dea57600080fd5b506104ec610df9366004614a03565b612b2c565b348015610e0a57600080fd5b5061053c610e19366004614516565b612b39565b348015610e2a57600080fd5b506104ec610e393660046145bf565b612b86565b348015610e4a57600080fd5b506104ec610e59366004614516565b612bdd565b348015610e6a57600080fd5b5061053c610e79366004614516565b612c44565b348015610e8a57600080fd5b5061053c610e99366004614516565b612c56565b348015610eaa57600080fd5b5061053c612c6b565b348015610ebf57600080fd5b506104ec612c71565b348015610ed457600080fd5b50610733613282565b348015610ee957600080fd5b506104ec610ef8366004614690565b61328b565b348015610f0957600080fd5b506104ec610f1836600461463f565b613417565b348015610f2957600080fd5b5061053c613460565b348015610f3e57600080fd5b506104ec610f4d36600461471a565b613466565b348015610f5e57600080fd5b506106c6610f6d36600461467e565b6135e1565b348015610f7e57600080fd5b506104ec6135fd565b6001600160a01b03811660009081526002602081815260408084208151608081018352815460ff16151581526001820154938101939093529283015490820152600390910154606082810191909152919081908190815b6001600160a01b0387166000908152600360205260409020548110156111bf576001600160a01b038716600090815260036020526040812080548390811061103657634e487b7160e01b600052603260045260246000fd5b600091825260208083206040805160a081018252600590940290910180548452600181015492840192909252600282015490830152600381015460608301526004015460ff1615156080820152915061108d611b23565b82516110999190614cd9565b9050600082600001518560400151116110b35782516110b9565b84604001515b905060008242116110ca57426110cc565b825b9050600061110485606001516110fe60646110f889604001518a6020015161363190919063ffffffff16565b9061366a565b9061368c565b9050821580159061111457508183105b80156111205750600081115b156111745784608001511561116257611137611b23565b6111418484614d30565b61114b9083614d11565b6111559190614cf1565b61115f908b614cd9565b99505b61116d8b60016136a7565b9a50611182565b61117f8b60006136a7565b9a505b61118c89826137b8565b98506111a58560600151896137b890919063ffffffff16565b9750505050505080806111b790614d47565b915050610fde565b50509193509193565b60145481565b6001600160a01b0380821660009081526009602052604081205490911690811580159061121357506001600160a01b03821660009081526002602052604090205460ff165b1561135b5760005b6001600160a01b0383166000908152600b60205260409020548110156112a9576001600160a01b0383166000908152600b6020526040902080548290811061127357634e487b7160e01b600052603260045260246000fd5b6000918252602090912001546001600160a01b038581169116141561129757600191505b806112a181614d47565b91505061121b565b50806113565760005b6001600160a01b0383166000908152600a6020526040902054811015611340576001600160a01b0383166000908152600a6020526040902080548290811061130a57634e487b7160e01b600052603260045260246000fd5b6000918252602090912001546001600160a01b038581169116141561132e57600191505b8061133881614d47565b9150506112b2565b50806001141561135257506000611356565b5060035b611363565b506000905060035b915091565b606060005b828110156113cd576001600160a01b0380851660009081526009602052604090205461139b918491166137d4565b6001600160a01b03948516600090815260096020526040902054909416939150806113c581614d47565b91505061136d565b5092915050565b60215481565b6113e26138fd565b601180546001600160a01b0319166001600160a01b0392909216919091179055565b61140c613936565b806017838154811061142e57634e487b7160e01b600052603260045260246000fd5b6000918252602090912001555050565b601a818154811061144e57600080fd5b600091825260209091200154905081565b6018818154811061144e57600080fd5b6001600160a01b0381166000908152600360209081526040808320805482518185028101850190935280835260609492939192909184015b8282101561150a5760008481526020908190206040805160a081018252600586029092018054835260018082015484860152600282015492840192909252600381015460608401526004015460ff161515608083015290835290920191016114a7565b5050505090505b919050565b60066020526000908152604090205481565b6017818154811061144e57600080fd5b600a602052816000526040600020818154811061155457600080fd5b6000918252602090912001546001600160a01b03169150829050565b6028818154811061144e57600080fd5b600c602052600090815260409020546001600160a01b031681565b600e60205281600052604060002081815481106115b757600080fd5b9060005260206000209060209182820401919006915091509054906101000a900460ff1681565b60135481565b6115ec613936565b601355565b60275481565b601c5460ff1661160657600080fd5b601e5433600090815260306020526040902054429161162491614cd9565b111561162f57600080fd5b3360009081526007602052604080822054915490516370a0823160e01b815282916001600160a01b0316906370a082319061166e903090600401614a8f565b60206040518083038186803b15801561168657600080fd5b505afa15801561169a573d6000803e3d6000fd5b505050506040513d601f19601f820116820180604052508101906116be9190614a1b565b10156116c957600080fd5b6012548110156116d857600080fd5b601f54336000908152600260205260409020600101546116fe916064916110f891613631565b3360009081526002602052604090206003015461171b90836137b8565b1115611756573360009081526002602052604090206003810154601f54600190920154611753926110fe916064916110f89190613631565b90505b3360009081526002602052604090206003015461177390826137b8565b336000908152600260205260409020600301556013548111156117b95760135461179d9082614d30565b601460008282546117ae9190614cd9565b909155505060135490505b606460005b60295481101561196957306001600160a01b0316602982815481106117f357634e487b7160e01b600052603260045260246000fd5b6000918252602090912001546001600160a01b03161461191757600054602980546001600160a01b039092169163a9059cbb91908490811061184557634e487b7160e01b600052603260045260246000fd5b9060005260206000200160009054906101000a90046001600160a01b03166118a660646110f86028878154811061188c57634e487b7160e01b600052603260045260246000fd5b90600052602060002001548961363190919063ffffffff16565b6040518363ffffffff1660e01b81526004016118c3929190614ac7565b602060405180830381600087803b1580156118dd57600080fd5b505af11580156118f1573d6000803e3d6000fd5b505050506040513d601f19601f820116820180604052508101906119159190614910565b505b6119556028828154811061193b57634e487b7160e01b600052603260045260246000fd5b90600052602060002001548361368c90919063ffffffff16565b91508061196181614d47565b9150506117be565b506000546001600160a01b031663a9059cbb3361198b60646110f88787613631565b6040518363ffffffff1660e01b81526004016119a8929190614ac7565b602060405180830381600087803b1580156119c257600080fd5b505af11580156119d6573d6000803e3d6000fd5b505050506040513d601f19601f820116820180604052508101906119fa9190614910565b50611a5833836018805480602002602001604051908101604052809291908181526020018280548015611a4c57602002820191906000526020600020905b815481526020019060010190808311611a38575b5050505050600161396a565b33600090815260076020526040812081905560268054849290611a7c908490614cd9565b90915550503360009081526030602052604090204290555050565b611a9f613d3a565b6001600160a01b03821660009081526002602052604090205460ff16611ac457600080fd5b6000818152600c6020908152604080832080546001600160a01b039096166001600160a01b031990961686179055938252600d90529190912055565b602c818154811061144e57600080fd5b601f5481565b611b1e613936565b601255565b601d54600090611b369062015180613631565b905090565b60245481565b60155481565b60608115611b6c576001600160a01b0383166000908152600b60205260409020611b85565b6001600160a01b0383166000908152600a602052604090205b805480602002602001604051908101604052809291908181526020018280548015611bd957602002820191906000526020600020905b81546001600160a01b03168152600190910190602001808311611bbb575b505050505090505b92915050565b611bef613936565b602b8290558051611c0790602c906020840190614088565b505050565b611c14613936565b806018838154811061142e57634e487b7160e01b600052603260045260246000fd5b611c3e613d3a565b82601554611c4c9190614d11565b9250611c5a84848484613d6e565b50505050565b602e818154811061144e57600080fd5b611c78613936565b601f55565b601c5460ff16611c8c57600080fd5b6000611c973361202c565b905060005b601b54811015611e5957601a8181548110611cc757634e487b7160e01b600052603260045260246000fd5b90600052602060002001548210158015611d2d5750336000908152600e60205260409020805482908110611d0b57634e487b7160e01b600052603260045260246000fd5b90600052602060002090602091828204019190069054906101000a900460ff16155b15611e4757600054601b80546001600160a01b039092169163a9059cbb91339185908110611d6b57634e487b7160e01b600052603260045260246000fd5b90600052602060002001546040518363ffffffff1660e01b8152600401611d93929190614ac7565b602060405180830381600087803b158015611dad57600080fd5b505af1158015611dc1573d6000803e3d6000fd5b505050506040513d601f19601f82011682018060405250810190611de59190614910565b15611e4757336000908152600e6020526040902080546001919083908110611e1d57634e487b7160e01b600052603260045260246000fd5b90600052602060002090602091828204019190066101000a81548160ff0219169083151502179055505b80611e5181614d47565b915050611c9c565b5050565b60125481565b60086020526000908152604090205481565b6002602081905260009182526040909120805460018201549282015460039092015460ff90911692919084565b60298181548110611eb257600080fd5b6000918252602090912001546001600160a01b0316905081565b60046020526000908152604090205481565b611ee6613936565b611ef2602985856140d3565b50611eff60288383614126565b5050505050565b6011546001600160a01b031681565b602b5481565b601b818154811061144e57600080fd5b611f33613d3a565b6001600160a01b03831660009081526002602052604090205460ff1615611f5957600080fd5b6001600160a01b0383166000908152600e6020526040902060198054611f80929190614161565b50602780546000908152600c6020908152604080832080546001600160a01b0319166001600160a01b0389169081179091558454908452600d90925282208190559190611fcc83614d47565b9190505550611c07838383613e3b565b60198181548110611fec57600080fd5b9060005260206000209060209182820401919006915054906101000a900460ff1681565b602f5460ff1681565b602754602454602554909192565b600090565b6001600160a01b031660009081526008602052604090205490565b60265481565b336000908152600f602052604090205460011180159061207d5750336000908152600f6020526040902054600210155b80156120985750336000908152600f60205260409020548110155b80156120ac57506001600160a01b03821615155b6120b557600080fd5b6001600160a01b039091166000908152600f6020526040902055565b6120d96138fd565b6000546040516370a0823160e01b81526001600160a01b039091169063a9059cbb90339083906370a0823190612113903090600401614a8f565b60206040518083038186803b15801561212b57600080fd5b505afa15801561213f573d6000803e3d6000fd5b505050506040513d601f19601f820116820180604052508101906121639190614a1b565b6040518363ffffffff1660e01b8152600401612180929190614ac7565b602060405180830381600087803b15801561219a57600080fd5b505af11580156121ae573d6000803e3d6000fd5b505050506040513d601f19601f820116820180604052508101906121d29190614910565b50565b602d8181548110611eb257600080fd5b6121ed613936565b601555565b6121fa613f47565b8215612220576001600160a01b0385166000908152600260208190526040909120018390555b8315612242576001600160a01b03851660009081526007602052604090208490555b8115612264576001600160a01b03851660009081526004602052604090208290555b8015611eff576001600160a01b03851660009081526006602052604090208190555050505050565b60165481565b806015546122a09190614d11565b905080602460008282546122b49190614cd9565b90915550506000546040516323b872dd60e01b81526001600160a01b03909116906323b872dd906122ed90339030908690600401614aa3565b602060405180830381600087803b15801561230757600080fd5b505af115801561231b573d6000803e3d6000fd5b505050506040513d601f19601f8201168201806040525081019061233f9190614910565b61234857600080fd5b60005b602d548110156124b657306001600160a01b0316602d828154811061238057634e487b7160e01b600052603260045260246000fd5b6000918252602090912001546001600160a01b0316146124a457600054602d80546001600160a01b039092169163a9059cbb9190849081106123d257634e487b7160e01b600052603260045260246000fd5b9060005260206000200160009054906101000a90046001600160a01b031661243360646110f8602e878154811061241957634e487b7160e01b600052603260045260246000fd5b90600052602060002001548861363190919063ffffffff16565b6040518363ffffffff1660e01b8152600401612450929190614ac7565b602060405180830381600087803b15801561246a57600080fd5b505af115801561247e573d6000803e3d6000fd5b505050506040513d601f19601f820116820180604052508101906124a29190614910565b505b806124ae81614d47565b91505061234b565b506124c63382601f546001613d6e565b6121d23382601780548060200260200160405190810160405280929190818152602001828054801561251757602002820191906000526020600020905b815481526020019060010190808311612503575b5050505050600061396a565b61252b613936565b815161253e90602d9060208501906141af565b508051611c0790602e906020840190614088565b60076020526000908152604090205481565b601d5481565b600f6020526000908152604090205481565b612584613936565b601d55565b600360205281600052604060002081815481106125a557600080fd5b600091825260209091206005909102018054600182015460028301546003840154600490940154929550909350919060ff1685565b601e5481565b6125e8613936565b601c805460ff1916911515919091179055565b6009602052600090815260409020546001600160a01b031681565b6010546001600160a01b031681565b60056020526000908152604090205481565b6000612641613f47565b6001600160a01b03851660009081526002602052604090205460ff1615806126ff5750600160009054906101000a90046001600160a01b03166001600160a01b031663f851a4406040518163ffffffff1660e01b815260040160206040518083038186803b1580156126b257600080fd5b505afa1580156126c6573d6000803e3d6000fd5b505050506040513d601f19601f820116820180604052508101906126ea9190614532565b6001600160a01b0316856001600160a01b0316145b1561282b576001600160a01b0385166000908152600e60209081526040909120845161272d92860190614204565b506000848152600c6020908152604080832080546001600160a01b03199081166001600160a01b038b81169182179093558552600d845282852089905560098452918420805490921690861617905560248054918d0135929091612792908490614cd9565b925050819055508960600135602660008282546127af9190614cd9565b90915550506001600160a01b03851660009081526002602052604090208a906127d88282614de0565b50506001600160a01b0385166000908152600a602052604090206127fd908a8a6140d3565b506001600160a01b0385166000908152600b602052604090206128219088886140d3565b506001905061284c565b60405162461bcd60e51b815260040161284390614c1e565b60405180910390fd5b9998505050505050505050565b60255481565b602b5415612a6957600054602b546040516323b872dd60e01b81526001600160a01b03909216916323b872dd9161289c9133913091600401614aa3565b602060405180830381600087803b1580156128b657600080fd5b505af11580156128ca573d6000803e3d6000fd5b505050506040513d601f19601f820116820180604052508101906128ee9190614910565b6128f757600080fd5b60005b602a54811015612a6757306001600160a01b0316602a828154811061292f57634e487b7160e01b600052603260045260246000fd5b6000918252602090912001546001600160a01b031614612a5557600054602a80546001600160a01b039092169163a9059cbb91908490811061298157634e487b7160e01b600052603260045260246000fd5b9060005260206000200160009054906101000a90046001600160a01b03166129e460646110f8602c87815481106129c857634e487b7160e01b600052603260045260246000fd5b9060005260206000200154602b5461363190919063ffffffff16565b6040518363ffffffff1660e01b8152600401612a01929190614ac7565b602060405180830381600087803b158015612a1b57600080fd5b505af1158015612a2f573d6000803e3d6000fd5b505050506040513d601f19601f82011682018060405250810190612a539190614910565b505b80612a5f81614d47565b9150506128fa565b505b336000908152600e6020526040902060198054612a87929190614161565b50602780546000908152600c6020908152604080832080546001600160a01b031916339081179091558454908452600d90925282208190559190612aca83614d47565b90915550503360009081526002602052604090205460ff1615612aec57600080fd5b611e59338383613e3b565b60225481565b612b05613936565b601e55565b602a8181548110611eb257600080fd5b600d6020526000908152604090205481565b612b34613936565b602755565b6000611be1612b4783612c56565b6001600160a01b03841660009081526006602090815260408083205460058352818420546004909352922054612b8092918391906137b8565b906137b8565b612b8e613f47565b6001600160a01b0385166000908152600a60205260409020612bb19085856140d3565b506001600160a01b0385166000908152600b60205260409020612bd59083836140d3565b505050505050565b336000908152600f6020526040902054600111801590612c0d5750336000908152600f6020526040902054600210155b8015612c2157506001600160a01b03811615155b612c2a57600080fd5b6001600160a01b03166000908152600f6020526040812055565b60306020526000908152604090205481565b6000612c6182610f87565b5090949350505050565b60235481565b602f5460ff1615612c8157600080fd5b600080546001600160a01b03199081167355d398326f99059ff775485246999027b31979551790915560018054909116301790819055604080516303e1469160e61b8152905133926001600160a01b03169163f851a440916004808301926020929190829003018186803b158015612cf857600080fd5b505afa158015612d0c573d6000803e3d6000fd5b505050506040513d601f19601f82011682018060405250810190612d309190614532565b6001600160a01b031614612d4357600080fd5b602f8054600160ff199182168117909255336000908152600f602090815260408083208590556002825280832080549094169094178355835161018081018552828152908101829052928301819052606083018190526080830181905260a0830181905260c0830181905260e0830181905261010083018190526101208301819052610140830181905261016083015290612de290601990600c614204565b50336000908152600e6020526040902060198054612e01929190614161565b507f13649b2456f1b42fef0f0040b3aaeabcd21a76a0f3f5defd4f583839455116e880546001600160a01b031916339081179091556000908152600d6020908152604080832092909255674563918244f4000060125568a2a15d09519be0000060135568015af1d78b58c4000060155560016016819055825191820190925260508152612e9191601791906142a4565b506040805160a081018252601481526005602082018190529181018290526060810182905260808101829052612eca91601891906142a4565b50604080516101a081018252678ac7230489e8000081526801158e460913d00000602082015268022b1c8c1227a000009181019190915268056bc75e2d631000006060820152680ad78ebc5ac620000060808201526815af1d78b58c40000060a0820152683635c9adc5dea0000060c0820152686c6b935b8bbd40000060e082015268d8d726b7177a80000061010082015269010f0cf064dd5920000061012082015269021e19e0c9bab240000061014082015269043c33c1937564800000610160820152690a968163f0a57b400000610180820152612fae90601b90600d6142e4565b50604080516101a0810182526806c6b935b8bbd400008152680d8d726b7177a800006020820152681b1ae4d6e2ef500000918101919091526843c33c193756480000606082015268878678326eac900000608082015269010f0cf064dd5920000060a08201526902a5a058fc295ed0000060c082015269054b40b1f852bda0000060e0820152690a968163f0a57b400000610100820152691a784379d99db42000006101208201526934f086f3b33b684000006101408201526969e10de76676d08000006101608201526a0108b2a2c280290940000061018082015261309890601a90600d61432d565b50601c805460ff191660019081179091556104b0601d5562015180601e5560c8601f55602090815560026021819055600a60225560238190556104cb602755678ac7230489e80000602b556040805180820190915273df835cb0935fdbc51bbf730599b57b21815441dd81527352f77b3283c5627fdd827ef62a32d9e90910a6b59281019290925261312c91602a916141af565b50604080518082019091526032808252602082015261314f90602c9060026142a4565b5060408051608081018252730c4c6519e8b6e4d9c99b09a3cda475638c930b00815273df835cb0935fdbc51bbf730599b57b21815441dd60208201527352f77b3283c5627fdd827ef62a32d9e90910a6b591810191909152736bd8c114dde23c9d543e1974822646ee840b7d3360608201526131cf90602d9060046141af565b5060408051608081018252600181526004602082018190526005928201929092526041606082015261320491602e91906142a4565b50604080516060810182527352f77b3283c5627fdd827ef62a32d9e90910a6b5815273df835cb0935fdbc51bbf730599b57b21815441dd602082015230918101919091526132569060299060036141af565b506040805160608101825260028082526020820152600491810191909152611e599060289060036142a4565b601c5460ff1681565b613293613f47565b80156132bf576001600160a01b03831660009081526003602052604081206132ba91614377565b611c07565b6001600160a01b038316600090815260036020526040902080546132e590600190614d30565b8154811061330357634e487b7160e01b600052603260045260246000fd5b906000526020600020906005020160036000856001600160a01b03166001600160a01b03168152602001908152602001600020838154811061335557634e487b7160e01b600052603260045260246000fd5b6000918252602080832084546005939093020191825560018085015490830155600280850154908301556003808501548184015560049485015494909201805460ff191660ff9095161515949094179093556001600160a01b0386168252909152604090208054806133d757634e487b7160e01b600052603160045260246000fd5b60008281526020812060056000199093019283020181815560018101829055600281018290556003810191909155600401805460ff191690559055505050565b61341f613f47565b602081013515611e59576001600160a01b0382166000908152600360209081526040822080546001810182559083529120829160050201611c5a8282614da3565b60205481565b61346e613f47565b6001600160a01b03841660009081526002602052604090205460ff1661349357600080fd5b6001600160a01b0384166000908152600860205260409020548211156134cf576001600160a01b03841660009081526008602052604090208290555b8215613512576001600160a01b0384166000908152600560205260409020546134f890846137b8565b6001600160a01b0385166000908152600560205260409020555b8015613522576135228482613f5e565b61354d61352e85612b39565b6001600160a01b038616600090815260076020526040902054906137b8565b6001600160a01b038516600090815260076020908152604080832093909355600681528282205460058252838320546004909252929091205461359e92879261359992612b80916137b8565b613f5e565b5050506001600160a01b03166000908152600460209081526040808320839055600582528083208390556006825280832083905560029182905290912042910155565b600b602052816000526040600020818154811061155457600080fd5b6136056138fd565b60405133904780156108fc02916000818181858888f193505050501580156121d2573d6000803e3d6000fd5b60008261364057506000611be1565b600061364c8385614d11565b9050826136598583614cf1565b1461366357600080fd5b9392505050565b600080821161367857600080fd5b60006136848385614cf1565b949350505050565b60008282111561369b57600080fd5b60006136848385614d30565b6060825160016136b79190614cd9565b67ffffffffffffffff8111156136dd57634e487b7160e01b600052604160045260246000fd5b604051908082528060200260200182016040528015613706578160200160208202803683370190505b50905060005b835181101561377f5783818151811061373557634e487b7160e01b600052603260045260246000fd5b602002602001015182828151811061375d57634e487b7160e01b600052603260045260246000fd5b911515602092830291909101909101528061377781614d47565b91505061370c565b5081818451815181106137a257634e487b7160e01b600052603260045260246000fd5b9115156020928302919091019091015292915050565b6000806137c58385614cd9565b90508381101561366357600080fd5b6060825160016137e49190614cd9565b67ffffffffffffffff81111561380a57634e487b7160e01b600052604160045260246000fd5b604051908082528060200260200182016040528015613833578160200160208202803683370190505b50905060005b83518110156138b45783818151811061386257634e487b7160e01b600052603260045260246000fd5b602002602001015182828151811061388a57634e487b7160e01b600052603260045260246000fd5b6001600160a01b0390921660209283029190910190910152806138ac81614d47565b915050613839565b5081818451815181106138d757634e487b7160e01b600052603260045260246000fd5b60200260200101906001600160a01b031690816001600160a01b03168152505092915050565b336000908152600f602052604090205460011080159061392b5750336000908152600f602052604090205415155b61393457600080fd5b565b336000908152600f602052604090205460021080159061392b5750336000908152600f602052604090205461393457600080fd5b6060613977858451611368565b905060008080805b8651811015613d2f578681815181106139a857634e487b7160e01b600052603260045260246000fd5b6020026020010151600014613d1857600260008683815181106139db57634e487b7160e01b600052603260045260246000fd5b60200260200101516001600160a01b03166001600160a01b031681526020019081526020016000209250613a35858281518110613a2857634e487b7160e01b600052603260045260246000fd5b6020026020010151610f87565b50855490945060ff169150508015613a4d5750600082115b15613d1d5760006001600160a01b0316858281518110613a7d57634e487b7160e01b600052603260045260246000fd5b60200260200101516001600160a01b031614613d1857613ad36103e86110f8898481518110613abc57634e487b7160e01b600052603260045260246000fd5b60200260200101518b61363190919063ffffffff16565b935083821115613bfa57613b0e858281518110613b0057634e487b7160e01b600052603260045260246000fd5b602002602001015185613f5e565b8515613b7b578360066000878481518110613b3957634e487b7160e01b600052603260045260246000fd5b60200260200101516001600160a01b03166001600160a01b031681526020019081526020016000206000828254613b709190614cd9565b90915550613bdd9050565b8360046000878481518110613ba057634e487b7160e01b600052603260045260246000fd5b60200260200101516001600160a01b03166001600160a01b031681526020019081526020016000206000828254613bd79190614cd9565b90915550505b8360256000828254613bef9190614cd9565b90915550613d139050565b8515613c67578160066000878481518110613c2557634e487b7160e01b600052603260045260246000fd5b60200260200101516001600160a01b03166001600160a01b031681526020019081526020016000206000828254613c5c9190614cd9565b90915550613cc99050565b8160046000878481518110613c8c57634e487b7160e01b600052603260045260246000fd5b60200260200101516001600160a01b03166001600160a01b031681526020019081526020016000206000828254613cc39190614cd9565b90915550505b8160256000828254613cdb9190614cd9565b92505081905550613d13858281518110613d0557634e487b7160e01b600052603260045260246000fd5b602002602001015183613f5e565b613d1d565b613d2f565b80613d2781614d47565b91505061397f565b505050505050505050565b336000908152600f602052604090205460041080159061392b5750336000908152600f602052604090205461393457600080fd5b6001600160a01b0384166000908152600260205260409020805460ff16613d9457600080fd5b6001600160a01b0385166000908152600360208181526040808420815160a0810183524281528084018a81529281018981526060820187815289151560808401908152845460018082018755958a5296892093516005909702909301958655935185840155516002850155915193830193909355516004909101805460ff191691151591909117905582018054869290613e2f908490614cd9565b90915550505050505050565b6001600160a01b038084166000908152600260205260409020805460ff19166001179055821615801590613e8757506001600160a01b0383811660009081526009602052604090205416155b15611c07576001600160a01b03838116600090815260096020526040902080546001600160a01b03191691841691909117905560ff8116613f05576001600160a01b038281166000908152600a602090815260408220805460018101825590835291200180546001600160a01b031916918516919091179055611c07565b506001600160a01b039081166000908152600b602090815260408220805460018101825590835291200180546001600160a01b03191692909116919091179055565b6011546001600160a01b0316331461393457600080fd5b6000805b6001600160a01b038416600090815260036020526040902054811015611c5a578215614076576001600160a01b0384166000908152600360205260409020805482908110613fc057634e487b7160e01b600052603260045260246000fd5b90600052602060002090600502019150613ff882600301546110fe60646110f88660020154876001015461363190919063ffffffff16565b83111561405d5761403161402a83600301546110fe60646110f88760020154886001015461363190919063ffffffff16565b849061368c565b925061405360646110f88460020154856001015461363190919063ffffffff16565b6003830155614076565b600382015461406c90846137b8565b6003830155600092505b8061408081614d47565b915050613f62565b8280548282559060005260206000209081019282156140c3579160200282015b828111156140c35782518255916020019190600101906140a8565b506140cf929150614398565b5090565b8280548282559060005260206000209081019282156140c3579160200282015b828111156140c35781546001600160a01b0319166001600160a01b038435161782556020909201916001909101906140f3565b8280548282559060005260206000209081019282156140c3579160200282015b828111156140c3578235825591602001919060010190614146565b82805482825590600052602060002090601f016020900481019282156140c357600052602060002091601f016020900482015b828111156140c3578254825591600101919060010190614194565b8280548282559060005260206000209081019282156140c3579160200282015b828111156140c357825182546001600160a01b0319166001600160a01b039091161782556020909201916001909101906141cf565b82805482825590600052602060002090601f016020900481019282156140c35791602002820160005b8382111561426a57835183826101000a81548160ff021916908315150217905550926020019260010160208160000104928301926001030261422d565b80156142975782816101000a81549060ff021916905560010160208160000104928301926001030261426a565b50506140cf929150614398565b8280548282559060005260206000209081019282156140c3579160200282015b828111156140c3578251829060ff169055916020019190600101906142c4565b8280548282559060005260206000209081019282156140c3579160200282015b828111156140c3578251829069ffffffffffffffffffff16905591602001919060010190614304565b8280548282559060005260206000209081019282156140c3579160200282015b828111156140c357825182906affffffffffffffffffffff1690559160200191906001019061434d565b50805460008255600502906000526020600020908101906121d291906143ad565b5b808211156140cf5760008155600101614399565b5b808211156140cf5760008082556001820181905560028201819055600382015560048101805460ff191690556005016143ae565b803561151181614e18565b60008083601f8401126143fe578182fd5b50813567ffffffffffffffff811115614415578182fd5b602083019150836020808302850101111561442f57600080fd5b9250929050565b600082601f830112614446578081fd5b8135602061445b61445683614cb5565b614c8b565b8281528181019085830183850287018401881015614477578586fd5b855b8581101561449e57813561448c81614e2d565b84529284019290840190600101614479565b5090979650505050505050565b600082601f8301126144bb578081fd5b813560206144cb61445683614cb5565b82815281810190858301838502870184018810156144e7578586fd5b855b8581101561449e578135845292840192908401906001016144e9565b803560ff8116811461151157600080fd5b600060208284031215614527578081fd5b813561366381614e18565b600060208284031215614543578081fd5b815161366381614e18565b60008060408385031215614560578081fd5b823561456b81614e18565b946020939093013593505050565b60008060006060848603121561458d578081fd5b833561459881614e18565b925060208401356145a881614e18565b91506145b660408501614505565b90509250925092565b6000806000806000606086880312156145d6578081fd5b85356145e181614e18565b9450602086013567ffffffffffffffff808211156145fd578283fd5b61460989838a016143ed565b90965094506040880135915080821115614621578283fd5b5061462e888289016143ed565b969995985093965092949392505050565b60008082840360c0811215614652578283fd5b833561465d81614e18565b925060a0601f1982011215614670578182fd5b506020830190509250929050565b60008060408385031215614560578182fd5b6000806000606084860312156146a4578081fd5b83356146af81614e18565b92506020840135915060408401356146c681614e2d565b809150509250925092565b600080600080608085870312156146e6578182fd5b84356146f181614e18565b93506020850135925060408501359150606085013561470f81614e2d565b939692955090935050565b6000806000806080858703121561472f578182fd5b843561473a81614e18565b966020860135965060408601359560600135945092505050565b600080600080600060a0868803121561476b578283fd5b853561477681614e18565b97602087013597506040870135966060810135965060800135945092505050565b600080604083850312156147a9578182fd5b82356147b481614e18565b91506147c260208401614505565b90509250929050565b600080600080604085870312156147e0578182fd5b843567ffffffffffffffff808211156147f7578384fd5b614803888389016143ed565b9096509450602087013591508082111561481b578384fd5b50614828878288016143ed565b95989497509550505050565b60008060408385031215614846578182fd5b823567ffffffffffffffff8082111561485d578384fd5b818501915085601f830112614870578384fd5b8135602061488061445683614cb5565b82815281810190858301838502870184018b101561489c578889fd5b8896505b848710156148c75780356148b381614e18565b8352600196909601959183019183016148a0565b50965050860135925050808211156148dd578283fd5b506148ea858286016144ab565b9150509250929050565b600060208284031215614905578081fd5b813561366381614e2d565b600060208284031215614921578081fd5b815161366381614e2d565b6000806000806000806000806000898b0361014081121561494b578788fd5b6080811215614958578788fd5b5089985060808a013567ffffffffffffffff80821115614976578889fd5b6149828d838e016143ed565b909a50985060a08c013591508082111561499a578586fd5b6149a68d838e016143ed565b90985096508691506149ba60c08d016143e2565b955060e08c013594506101008c01359150808211156149d7578384fd5b506149e48c828d01614436565b9250506149f46101208b016143e2565b90509295985092959850929598565b600060208284031215614a14578081fd5b5035919050565b600060208284031215614a2c578081fd5b5051919050565b60008060408385031215614a45578182fd5b82359150602083013567ffffffffffffffff811115614a62578182fd5b6148ea858286016144ab565b60008060408385031215614a80578182fd5b50508035926020909101359150565b6001600160a01b0391909116815260200190565b6001600160a01b039384168152919092166020820152604081019190915260600190565b6001600160a01b03929092168252602082015260400190565b6020808252825182820181905260009190848201906040850190845b81811015614b215783516001600160a01b031683529284019291840191600101614afc565b50909695505050505050565b6080808252855190820181905260009060209060a0840190828901845b82811015614b68578151151584529284019290840190600101614b4a565b50505090830195909552506040810192909252606090910152919050565b602080825282518282018190526000919060409081850190868401855b82811015614be957815180518552868101518786015285810151868601526060808201519086015260809081015115159085015260a09093019290850190600101614ba3565b5091979650505050505050565b901515815260200190565b931515845260208401929092526040830152606082015260800190565b6020808252600f908201526e105b1c99591e481b5a59dc985d1959608a1b604082015260600190565b90815260200190565b9283526020830191909152604082015260600190565b9485526020850193909352604084019190915260608301521515608082015260a00190565b60405181810167ffffffffffffffff81118282101715614cad57614cad614d78565b604052919050565b600067ffffffffffffffff821115614ccf57614ccf614d78565b5060209081020190565b60008219821115614cec57614cec614d62565b500190565b600082614d0c57634e487b7160e01b81526012600452602481fd5b500490565b6000816000190483118215151615614d2b57614d2b614d62565b500290565b600082821015614d4257614d42614d62565b500390565b6000600019821415614d5b57614d5b614d62565b5060010190565b634e487b7160e01b600052601160045260246000fd5b634e487b7160e01b600052604160045260246000fd5b60ff1981541660ff8315151681178255505050565b813581556020820135600182015560408201356002820155606082013560038201556080820135614dd381614e2d565b611c078160048401614d8e565b8135614deb81614e2d565b614df58183614d8e565b506020820135600182015560408201356002820155606082013560038201555050565b6001600160a01b03811681146121d257600080fd5b80151581146121d257600080fdfea26469706673582212200573185364f1ca4c5262d8955aadb842295d9c5641f80f98d1413b470260635c64736f6c63430008000033",
    "sourcePath": "c:/Users/NITRO 5/Documents/GitHub/Mehdi1/contracts/BinariSystemV3.1.sol",
    "compiler": {
        "name": "solc",
        "version": "0.8.0+commit.c7dfd78e"
    },
    "functionHashes": {
        "API()": "7d7b0099",
        "GanaMax()": "0a33879e",
        "MAX_RETIRO()": "313e70ee",
        "MIN_RETIRO()": "6c529279",
        "addressToId(address)": "cb0e0d7d",
        "asignFreeMembership(address,address,uint8)": "8321a1b2",
        "asignarPlan(address,uint256,uint256,bool)": "5e64e6b6",
        "binario(address)": "b9496971",
        "buyPlan(uint256)": "a80b223b",
        "column(address,uint256)": "15e8392b",
        "controlWitdrawl(bool)": "b17b6e44",
        "corteBinarioDo(address,uint256,uint256,uint256)": "f48d214a",
        "deleteDeposit(address,uint256,bool)": "e74a6863",
        "depositos(address,uint256)": "ad62640d",
        "dias()": "ab6db199",
        "directosBinario()": "d8771869",
        "espaciosRango(uint256)": "833a2a45",
        "factorPuntos()": "17b11e78",
        "gananciasRango(uint256)": "81032892",
        "hijosLeft(address,uint256)": "291104cf",
        "hijosRight(address,uint256)": "f73f1d71",
        "idToAddress(uint256)": "2a2d0c47",
        "iniciado()": "83bd8528",
        "inicializar()": "dcbe327e",
        "inversiones()": "a77d2119",
        "investors(address)": "6f7bc9be",
        "lastPay(address)": "d5007949",
        "lastUserId()": "348d4487",
        "leveling(address)": "ac3c3f63",
        "makeNewApi(address)": "1800df1b",
        "makeNewLevel(address,uint256)": "9c46bc6f",
        "makeRemoveLevel(address)": "d4cd9a85",
        "matchingBonus(address)": "28847ba0",
        "migrate((bool,uint256,uint256,uint256),address[],address[],address,uint256,bool[],address)": "bed17145",
        "migrateDeposit(address,(uint256,uint256,uint256,uint256,bool))": "ee056caa",
        "migrateVariables(address,uint256,uint256,uint256,uint256)": "a6617e8b",
        "misDirectos(address,uint256)": "555452c1",
        "multiPuntos()": "ee1934bc",
        "newRecompensa()": "69f4a84b",
        "onOffWitdrawl()": "e7348e8c",
        "owner()": "8da5cb5b",
        "padre(address)": "b35f0a8f",
        "plan()": "53e06571",
        "porcent()": "4728f718",
        "porcentPuntosBinario()": "c2307ee6",
        "porcientoRegistro(uint256)": "46e512a7",
        "porcientos(uint256)": "28cca719",
        "porcientosSalida(uint256)": "22c0a574",
        "precioRegistro()": "7db9e9c6",
        "puntosRango(uint256)": "21309f21",
        "puntosUsados(address)": "6d666379",
        "rangoReclamado(address,uint256)": "2acc8210",
        "redimBNB()": "fd14d598",
        "redimToken()": "9e414b7c",
        "registro(address,uint8)": "c14b8361",
        "retirableA(address)": "ab4cc147",
        "setDias(uint256)": "ace17da7",
        "setMAX_RETIRO(uint256)": "3269eff7",
        "setMIN_RETIRO(uint256)": "4de1be62",
        "setPlan(uint256)": "a2add0aa",
        "setPorcientos(uint256,uint256)": "1e403c35",
        "setPorcientosSalida(uint256,uint256)": "5d216c60",
        "setPrecioRegistro(uint256,uint256[])": "586e04e1",
        "setRetorno(uint256)": "6589fa8a",
        "setTimerOut(uint256)": "c308fab4",
        "setWalletFee(address[],uint256[])": "7583f8fc",
        "setWalletstransfers(address[],uint256[])": "a8beb717",
        "setstate()": "85338e20",
        "taken()": "b6761a64",
        "tiempo()": "50188c08",
        "timerOut()": "aec68894",
        "totalInvested()": "5216aeec",
        "totalRefRewards()": "bfe0e020",
        "totalRefWitdrawl()": "9b8ff503",
        "updateHijos(address,address[],address[])": "d208aa0d",
        "updateTotalInvestors(uint256)": "ce4336c3",
        "updateUserID(address,uint256)": "459098f0",
        "upline(address)": "0e3bd352",
        "valor(uint256)": "62550916",
        "valorFee(uint256)": "29e1a243",
        "ventaDirecta(address)": "748b6fee",
        "verDepositos(address)": "05546e89",
        "verListaDepositos(address)": "24afc34e",
        "wallet(uint256)": "a2781335",
        "walletFee(uint256)": "7251b9ac",
        "walletRegistro(uint256)": "c7c1dd81",
        "withdraw()": "3ccfd60b",
        "withdrawable(address)": "ce513b6f",
        "withdrawablePassive(address)": "d5d2d6dc",
        "withdrawableRange(address)": "98c07d0a"
    },
    "gasEstimates": {
        "creation": {
            "codeDepositCost": "4016200",
            "executionCost": "25413",
            "totalCost": "4041613"
        },
        "external": {
            "": "265",
            "API()": "1159",
            "GanaMax()": "1120",
            "MAX_RETIRO()": "1096",
            "MIN_RETIRO()": "1118",
            "addressToId(address)": "1357",
            "asignFreeMembership(address,address,uint8)": "infinite",
            "asignarPlan(address,uint256,uint256,bool)": "infinite",
            "binario(address)": "1314",
            "buyPlan(uint256)": "infinite",
            "column(address,uint256)": "infinite",
            "controlWitdrawl(bool)": "23066",
            "corteBinarioDo(address,uint256,uint256,uint256)": "infinite",
            "deleteDeposit(address,uint256,bool)": "infinite",
            "depositos(address,uint256)": "5619",
            "dias()": "1162",
            "directosBinario()": "1161",
            "espaciosRango(uint256)": "3834",
            "factorPuntos()": "1186",
            "gananciasRango(uint256)": "2129",
            "hijosLeft(address,uint256)": "2293",
            "hijosRight(address,uint256)": "2356",
            "idToAddress(uint256)": "1348",
            "iniciado()": "1109",
            "inicializar()": "infinite",
            "inversiones()": "1206",
            "investors(address)": "3912",
            "lastPay(address)": "1335",
            "lastUserId()": "1140",
            "leveling(address)": "1402",
            "makeNewApi(address)": "23051",
            "makeNewLevel(address,uint256)": "23225",
            "makeRemoveLevel(address)": "7295",
            "matchingBonus(address)": "1425",
            "migrate((bool,uint256,uint256,uint256),address[],address[],address,uint256,bool[],address)": "infinite",
            "migrateDeposit(address,(uint256,uint256,uint256,uint256,bool))": "infinite",
            "migrateVariables(address,uint256,uint256,uint256,uint256)": "81876",
            "misDirectos(address,uint256)": "infinite",
            "multiPuntos()": "1138",
            "newRecompensa()": "infinite",
            "onOffWitdrawl()": "1217",
            "owner()": "365",
            "padre(address)": "1443",
            "plan()": "1185",
            "porcent()": "1097",
            "porcentPuntosBinario()": "1184",
            "porcientoRegistro(uint256)": "2174",
            "porcientos(uint256)": "2065",
            "porcientosSalida(uint256)": "2131",
            "precioRegistro()": "1139",
            "puntosRango(uint256)": "2109",
            "puntosUsados(address)": "1358",
            "rangoReclamado(address,uint256)": "3981",
            "redimBNB()": "infinite",
            "redimToken()": "infinite",
            "registro(address,uint8)": "infinite",
            "retirableA(address)": "1358",
            "setDias(uint256)": "22101",
            "setMAX_RETIRO(uint256)": "22124",
            "setMIN_RETIRO(uint256)": "22125",
            "setPlan(uint256)": "22168",
            "setPorcientos(uint256,uint256)": "23041",
            "setPorcientosSalida(uint256,uint256)": "23062",
            "setPrecioRegistro(uint256,uint256[])": "infinite",
            "setRetorno(uint256)": "22212",
            "setTimerOut(uint256)": "22101",
            "setWalletFee(address[],uint256[])": "infinite",
            "setWalletstransfers(address[],uint256[])": "infinite",
            "setstate()": "2776",
            "taken()": "1247",
            "tiempo()": "1394",
            "timerOut()": "1139",
            "totalInvested()": "1163",
            "totalRefRewards()": "1140",
            "totalRefWitdrawl()": "1185",
            "updateHijos(address,address[],address[])": "infinite",
            "updateTotalInvestors(uint256)": "22167",
            "updateUserID(address,uint256)": "44203",
            "upline(address)": "infinite",
            "valor(uint256)": "2152",
            "valorFee(uint256)": "2109",
            "ventaDirecta(address)": "1424",
            "verDepositos(address)": "infinite",
            "verListaDepositos(address)": "infinite",
            "wallet(uint256)": "2150",
            "walletFee(uint256)": "2194",
            "walletRegistro(uint256)": "2127",
            "withdraw()": "infinite",
            "withdrawable(address)": "infinite",
            "withdrawablePassive(address)": "infinite",
            "withdrawableRange(address)": "1399"
        },
        "internal": {
            "_buyPlan(address,uint256,uint256,bool)": "infinite",
            "_registro(address,address,uint8)": "84672",
            "discountDeposits(address,uint256)": "infinite",
            "onlyAdmin()": "1801",
            "onlyApi()": "849",
            "onlyLeader()": "infinite",
            "onlyOwner()": "1808",
            "onlySubOwner()": "1801",
            "rewardReferers(address,uint256,uint256[] memory,bool)": "infinite"
        }
    }
}